{
    "contractName": "ERC20MinerReward",
    "abi": [
        {
            "inputs": [],
            "stateMutability": "nonpayable",
            "type": "constructor"
        },
        {
            "anonymous": false,
            "inputs": [
                {
                    "indexed": true,
                    "internalType": "address",
                    "name": "owner",
                    "type": "address"
                },
                {
                    "indexed": true,
                    "internalType": "address",
                    "name": "spender",
                    "type": "address"
                },
                {
                    "indexed": false,
                    "internalType": "uint256",
                    "name": "value",
                    "type": "uint256"
                }
            ],
            "name": "Approval",
            "type": "event"
        },
        {
            "anonymous": false,
            "inputs": [
                {
                    "indexed": false,
                    "internalType": "string",
                    "name": "description",
                    "type": "string"
                },
                {
                    "indexed": true,
                    "internalType": "address",
                    "name": "_from",
                    "type": "address"
                },
                {
                    "indexed": false,
                    "internalType": "uint256",
                    "name": "_n",
                    "type": "uint256"
                }
            ],
            "name": "LogNewAlert",
            "type": "event"
        },
        {
            "anonymous": false,
            "inputs": [
                {
                    "indexed": true,
                    "internalType": "address",
                    "name": "from",
                    "type": "address"
                },
                {
                    "indexed": true,
                    "internalType": "address",
                    "name": "to",
                    "type": "address"
                },
                {
                    "indexed": false,
                    "internalType": "uint256",
                    "name": "value",
                    "type": "uint256"
                }
            ],
            "name": "Transfer",
            "type": "event"
        },
        {
            "inputs": [],
            "name": "_reward",
            "outputs": [],
            "stateMutability": "nonpayable",
            "type": "function"
        },
        {
            "inputs": [
                {
                    "internalType": "address",
                    "name": "owner",
                    "type": "address"
                },
                {
                    "internalType": "address",
                    "name": "spender",
                    "type": "address"
                }
            ],
            "name": "allowance",
            "outputs": [
                {
                    "internalType": "uint256",
                    "name": "",
                    "type": "uint256"
                }
            ],
            "stateMutability": "view",
            "type": "function"
        },
        {
            "inputs": [
                {
                    "internalType": "address",
                    "name": "spender",
                    "type": "address"
                },
                {
                    "internalType": "uint256",
                    "name": "amount",
                    "type": "uint256"
                }
            ],
            "name": "approve",
            "outputs": [
                {
                    "internalType": "bool",
                    "name": "",
                    "type": "bool"
                }
            ],
            "stateMutability": "nonpayable",
            "type": "function"
        },
        {
            "inputs": [
                {
                    "internalType": "address",
                    "name": "account",
                    "type": "address"
                }
            ],
            "name": "balanceOf",
            "outputs": [
                {
                    "internalType": "uint256",
                    "name": "",
                    "type": "uint256"
                }
            ],
            "stateMutability": "view",
            "type": "function"
        },
        {
            "inputs": [],
            "name": "creatorAddr",
            "outputs": [
                {
                    "internalType": "address",
                    "name": "",
                    "type": "address"
                }
            ],
            "stateMutability": "view",
            "type": "function"
        },
        {
            "inputs": [],
            "name": "decimals",
            "outputs": [
                {
                    "internalType": "uint8",
                    "name": "",
                    "type": "uint8"
                }
            ],
            "stateMutability": "view",
            "type": "function"
        },
        {
            "inputs": [
                {
                    "internalType": "address",
                    "name": "spender",
                    "type": "address"
                },
                {
                    "internalType": "uint256",
                    "name": "subtractedValue",
                    "type": "uint256"
                }
            ],
            "name": "decreaseAllowance",
            "outputs": [
                {
                    "internalType": "bool",
                    "name": "",
                    "type": "bool"
                }
            ],
            "stateMutability": "nonpayable",
            "type": "function"
        },
        {
            "inputs": [
                {
                    "internalType": "address",
                    "name": "spender",
                    "type": "address"
                },
                {
                    "internalType": "uint256",
                    "name": "addedValue",
                    "type": "uint256"
                }
            ],
            "name": "increaseAllowance",
            "outputs": [
                {
                    "internalType": "bool",
                    "name": "",
                    "type": "bool"
                }
            ],
            "stateMutability": "nonpayable",
            "type": "function"
        },
        {
            "inputs": [],
            "name": "name",
            "outputs": [
                {
                    "internalType": "string",
                    "name": "",
                    "type": "string"
                }
            ],
            "stateMutability": "view",
            "type": "function"
        },
        {
            "inputs": [],
            "name": "symbol",
            "outputs": [
                {
                    "internalType": "string",
                    "name": "",
                    "type": "string"
                }
            ],
            "stateMutability": "view",
            "type": "function"
        },
        {
            "inputs": [],
            "name": "totalSupply",
            "outputs": [
                {
                    "internalType": "uint256",
                    "name": "",
                    "type": "uint256"
                }
            ],
            "stateMutability": "view",
            "type": "function"
        },
        {
            "inputs": [
                {
                    "internalType": "address",
                    "name": "recipient",
                    "type": "address"
                },
                {
                    "internalType": "uint256",
                    "name": "amount",
                    "type": "uint256"
                }
            ],
            "name": "transfer",
            "outputs": [
                {
                    "internalType": "bool",
                    "name": "",
                    "type": "bool"
                }
            ],
            "stateMutability": "nonpayable",
            "type": "function"
        },
        {
            "inputs": [
                {
                    "internalType": "address",
                    "name": "sender",
                    "type": "address"
                },
                {
                    "internalType": "address",
                    "name": "recipient",
                    "type": "address"
                },
                {
                    "internalType": "uint256",
                    "name": "amount",
                    "type": "uint256"
                }
            ],
            "name": "transferFrom",
            "outputs": [
                {
                    "internalType": "bool",
                    "name": "",
                    "type": "bool"
                }
            ],
            "stateMutability": "nonpayable",
            "type": "function"
        }
    ],
    "bytecode": "608060405234801561001057600080fd5b50604080518082018252600c81526b26b4b732b92932bbb0b9322160a11b60208083019182528351808501909452600484526326a92ba160e11b90840152815191929161005f9160039161008d565b50805161007390600490602084019061008d565b5050600580546001600160a01b0319163317905550610161565b82805461009990610126565b90600052602060002090601f0160209004810192826100bb5760008555610101565b82601f106100d457805160ff1916838001178555610101565b82800160010185558215610101579182015b828111156101015782518255916020019190600101906100e6565b5061010d929150610111565b5090565b5b8082111561010d5760008155600101610112565b600181811c9082168061013a57607f821691505b6020821081141561015b57634e487b7160e01b600052602260045260246000fd5b50919050565b610a77806101706000396000f3fe608060405234801561001057600080fd5b50600436106100cf5760003560e01c8063313ce5671161008c57806395d89b411161006657806395d89b41146101ba578063a457c2d7146101c2578063a9059cbb146101d5578063dd62ed3e146101e857600080fd5b8063313ce5671461016f578063395093511461017e57806370a082311461019157600080fd5b806306fdde03146100d4578063095ea7b3146100f2578063165523931461011557806318160ddd146101405780631be0717f1461015257806323b872dd1461015c575b600080fd5b6100dc610221565b6040516100e991906108b4565b60405180910390f35b610105610100366004610925565b6102b3565b60405190151581526020016100e9565b600554610128906001600160a01b031681565b6040516001600160a01b0390911681526020016100e9565b6002545b6040519081526020016100e9565b61015a6102c9565b005b61010561016a36600461094f565b610342565b604051601281526020016100e9565b61010561018c366004610925565b6103f1565b61014461019f36600461098b565b6001600160a01b031660009081526020819052604090205490565b6100dc61042d565b6101056101d0366004610925565b61043c565b6101056101e3366004610925565b6104d5565b6101446101f63660046109ad565b6001600160a01b03918216600090815260016020908152604080832093909416825291909152205490565b606060038054610230906109e0565b80601f016020809104026020016040519081016040528092919081815260200182805461025c906109e0565b80156102a95780601f1061027e576101008083540402835291602001916102a9565b820191906000526020600020905b81548152906001019060200180831161028c57829003601f168201915b5050505050905090565b60006102c03384846104e2565b50600192915050565b6005546102e0906001600160a01b03166014610606565b600554604080518181526009818301526817dc995dd85c99195960ba1b606082015243602082015290516001600160a01b03909216917f773a356cf0813bd1ca65bdc565502f1d0bbe0bdb956cb13da59a9a437e2bd0129181900360800190a2565b600061034f8484846106e5565b6001600160a01b0384166000908152600160209081526040808320338452909152902054828110156103d95760405162461bcd60e51b815260206004820152602860248201527f45524332303a207472616e7366657220616d6f756e74206578636565647320616044820152676c6c6f77616e636560c01b60648201526084015b60405180910390fd5b6103e685338584036104e2565b506001949350505050565b3360008181526001602090815260408083206001600160a01b038716845290915281205490916102c0918590610428908690610a1b565b6104e2565b606060048054610230906109e0565b3360009081526001602090815260408083206001600160a01b0386168452909152812054828110156104be5760405162461bcd60e51b815260206004820152602560248201527f45524332303a2064656372656173656420616c6c6f77616e63652062656c6f77604482015264207a65726f60d81b60648201526084016103d0565b6104cb33858584036104e2565b5060019392505050565b60006102c03384846106e5565b6001600160a01b0383166105445760405162461bcd60e51b8152602060048201526024808201527f45524332303a20617070726f76652066726f6d20746865207a65726f206164646044820152637265737360e01b60648201526084016103d0565b6001600160a01b0382166105a55760405162461bcd60e51b815260206004820152602260248201527f45524332303a20617070726f766520746f20746865207a65726f206164647265604482015261737360f01b60648201526084016103d0565b6001600160a01b0383811660008181526001602090815260408083209487168084529482529182902085905590518481527f8c5be1e5ebec7d5bd14f71427d1e84f3dd0314c0f7b2291e5b200ac8c7c3b925910160405180910390a3505050565b6001600160a01b03821661065c5760405162461bcd60e51b815260206004820152601f60248201527f45524332303a206d696e7420746f20746865207a65726f20616464726573730060448201526064016103d0565b806002600082825461066e9190610a1b565b90915550506001600160a01b0382166000908152602081905260408120805483929061069b908490610a1b565b90915550506040518181526001600160a01b038316906000907fddf252ad1be2c89b69c2b068fc378daa952ba7f163c4a11628f55a4df523b3ef9060200160405180910390a35050565b6001600160a01b0383166107495760405162461bcd60e51b815260206004820152602560248201527f45524332303a207472616e736665722066726f6d20746865207a65726f206164604482015264647265737360d81b60648201526084016103d0565b6001600160a01b0382166107ab5760405162461bcd60e51b815260206004820152602360248201527f45524332303a207472616e7366657220746f20746865207a65726f206164647260448201526265737360e81b60648201526084016103d0565b6001600160a01b038316600090815260208190526040902054818110156108235760405162461bcd60e51b815260206004820152602660248201527f45524332303a207472616e7366657220616d6f756e7420657863656564732062604482015265616c616e636560d01b60648201526084016103d0565b6001600160a01b0380851660009081526020819052604080822085850390559185168152908120805484929061085a908490610a1b565b92505081905550826001600160a01b0316846001600160a01b03167fddf252ad1be2c89b69c2b068fc378daa952ba7f163c4a11628f55a4df523b3ef846040516108a691815260200190565b60405180910390a350505050565b600060208083528351808285015260005b818110156108e1578581018301518582016040015282016108c5565b818111156108f3576000604083870101525b50601f01601f1916929092016040019392505050565b80356001600160a01b038116811461092057600080fd5b919050565b6000806040838503121561093857600080fd5b61094183610909565b946020939093013593505050565b60008060006060848603121561096457600080fd5b61096d84610909565b925061097b60208501610909565b9150604084013590509250925092565b60006020828403121561099d57600080fd5b6109a682610909565b9392505050565b600080604083850312156109c057600080fd5b6109c983610909565b91506109d760208401610909565b90509250929050565b600181811c908216806109f457607f821691505b60208210811415610a1557634e487b7160e01b600052602260045260246000fd5b50919050565b60008219821115610a3c57634e487b7160e01b600052601160045260246000fd5b50019056fea2646970667358221220ef06c9c28f440d68bd9f28b1f6795e07b02b6021ec05521d78c7669f3cd0e68864736f6c634300080b0033",
    "sourcePath": "d:/bsc_projects/Token20/contracts/MinerRewards.sol",
    "compiler": {
        "name": "solc",
        "version": "0.8.11+commit.d7f03943"
    },
    "functionHashes": {
        "_reward()": "1be0717f",
        "allowance(address,address)": "dd62ed3e",
        "approve(address,uint256)": "095ea7b3",
        "balanceOf(address)": "70a08231",
        "creatorAddr()": "16552393",
        "decimals()": "313ce567",
        "decreaseAllowance(address,uint256)": "a457c2d7",
        "increaseAllowance(address,uint256)": "39509351",
        "name()": "06fdde03",
        "symbol()": "95d89b41",
        "totalSupply()": "18160ddd",
        "transfer(address,uint256)": "a9059cbb",
        "transferFrom(address,address,uint256)": "23b872dd"
    },
    "gasEstimates": {
        "creation": {
            "codeDepositCost": "535800",
            "executionCost": "infinite",
            "totalCost": "infinite"
        },
        "external": {
            "_reward()": "infinite",
            "allowance(address,address)": "infinite",
            "approve(address,uint256)": "24619",
            "balanceOf(address)": "2607",
            "creatorAddr()": "2382",
            "decimals()": "200",
            "decreaseAllowance(address,uint256)": "26932",
            "increaseAllowance(address,uint256)": "26979",
            "name()": "infinite",
            "symbol()": "infinite",
            "totalSupply()": "2348",
            "transfer(address,uint256)": "51231",
            "transferFrom(address,address,uint256)": "infinite"
        }
    }
}